:1000000000010020C1000000ED000000F100000030
:10001000F5000000F9000000FD00000000000000F5
:1000200000000000000000000000000001010000CE
:100030000501000000000000090100000D010000A2
:100040001101000011010000110100001101000068
:100050001101000011010000110100001101000058
:100060001101000011010000110100001101000048
:100070001101000015010000190100001D01000020
:100080002101000025010000290100002D010000D0
:1000900031010000350100000000000000000000F8
:1000A000390100003D010000410100000000000096
:1000B00045010000490100004D0100005101000010
:1000C00000B583B0074B019304E0019B1A1D019218
:1000D00000221A60019A044B9A42F6D300F022F9EA
:1000E000FEE7C0460000002000000020FEE7C046FA
:1000F000FEE7C046FEE7C046FEE7C046FEE7C04654
:10010000FEE7C046FEE7C046FEE7C046FEE7C04643
:10011000FEE7C046FEE7C046FEE7C046FEE7C04633
:10012000FEE7C046FEE7C046FEE7C046FEE7C04623
:10013000FEE7C046FEE7C046FEE7C046FEE7C04613
:10014000FEE7C046FEE7C046FEE7C046FEE7C04603
:10015000FEE7C04682B00190054B1B6804330122C4
:100160001A60034B1B68019A1A60C04602B07047C0
:100170007C110000024B1B681B6818007047C046CA
:100180007C11000082B00190044B1A68019B9B0017
:10019000D3181B68180002B07047C04678110000E1
:1001A00082B0142301930BE02323009302E0009B11
:1001B000013B0093009B002BF9DC019B013B019369
:1001C000019B002BF0DCC04602B0704700B585B043
:1001D00001900091019B009A5A4313009B009B18C9
:1001E0005B000849180000F07FFE03000393039BA7
:1001F0008022D205944663440293029B180005B006
:1002000000BDC04640420F0000B587B00190019B81
:100210001049180000F068FE03000593059B0E4A84
:100220005A43019BD3180D49180000F05DFE0300EE
:100230000493059B64225A43049BD3180393039BA6
:10024000C022D205944663440293029B180007B073
:1002500000BDC0460020BF0200E040FD00B80B001A
:1002600000B585B0019001990B4800F03DFE031EDA
:1002700002D180231B060CE00199074800F034FEF0
:1002800003000393039B8022120694466344029367
:10029000029B180005B000BD00B80B0000B589B086
:1002A00001900091019B002B04D1002307930023B0
:1002B00006931BE00199174800F016FE0300059312
:1002C000009B059A53431449180000F00DFE0300EB
:1002D0000793009B059A5A43079B10494B43D31839
:1002E0000F49180000F000FE03000693079A130060
:1002F0009B009B185B001A00069BD3180493049B79
:10030000A0221206944663440393039B180009B08D
:1003100000BDC0460040771B80969800806967FF4B
:1003200040420F0010B596B000231593002314939C
:10033000002310930023119300230E9300230F93A7
:1003400000230D93002308930023079300230693B3
:10035000002305930023049300230393DA4B1393A4
:10036000002312930023029306230C9303230B9381
:1003700001230A9302230993002301930020FFF72E
:1003800001FF030008930120FFF7FCFE0300079321
:100390000520FFF7F7FE03000393139A039B110058
:1003A0001800FFF77BFF03000293029BC022D205D7
:1003B000944663440193019A129B9A4201DD019B8A
:1003C0001293079AA0235B009A4206DD089AA023A5
:1003D0005B009A4201DD01230D93079B002B18D18E
:1003E000089B002B15D10D9B012B12D101231493D7
:1003F0000323119300230D9300230F9300230E93E7
:100400000020FFF7A7FEFFF7CBFEB04B1800FFF769
:10041000A1FE149B002B01D100F0C3FC089A4023DD
:10042000FF339A4204DD079B002B01D101230E9379
:10043000089B002B10D10E9B012B0DD1079B002B8D
:100440000AD1109B082B03DC109B0133109301E0B1
:100450000023109300230E93079A4023FF339A4200
:1004600004DD089B002B01D101230F93079B002B78
:100470003ED10F9B012B3BD1089B002B38D1119B08
:10048000002B07DD119B013B1193002310930023E8
:100490000F932DE0099BFA2292005A430A9B642194
:1004A0004B43D1180B9A13009B009B185B00CA1892
:1004B0000C9BD3181393002314930023159300234C
:1004C0000F93099BFA2292005A430A9B64214B43E3
:1004D000D1180B9A13009B009B185B00CA180C9B49
:1004E000D31880229205944663441800FFF732FE29
:1004F000119B012B00D122E103DC002B09D000F07D
:10050000E9FC022B00D129E2032B00D139E300F0F2
:10051000E1FC109B092B01D900F0D2FC109B9A0042
:100520006B4BD3181B689F4600230C93099BFA2240
:1005300092005A430A9B64214B43D1180B9A130033
:100540009B009B185B00CA180C9BD3188022920555
:10055000944663441800FFF7FDFDEFE001230C9380
:10056000099BFA2292005A430A9B64214B43D118FB
:100570000B9A13009B009B185B00CA180C9BD318A6
:1005800080229205944663441800FFF7E3FDD5E00E
:1005900002230C93099BFA2292005A430A9B64217E
:1005A0004B43D1180B9A13009B009B185B00CA1891
:1005B0000C9BD31880229205944663441800FFF7E1
:1005C000C9FDBBE003230C93099BFA2292005A4316
:1005D0000A9B64214B43D1180B9A13009B009B1874
:1005E0005B00CA180C9BD318802292059446634482
:1005F0001800FFF7AFFDA1E004230C93099BFA223A
:1006000092005A430A9B64214B43D1180B9A130062
:100610009B009B185B00CA180C9BD3188022920584
:10062000944663441800FFF795FD87E005230C937B
:10063000099BFA2292005A430A9B64214B43D1182A
:100640000B9A13009B009B185B00CA180C9BD318D5
:1006500080229205944663441800FFF77BFD6DE00D
:1006600006230C93099BFA2292005A430A9B6421A9
:100670004B43D1180B9A13009B009B185B00CA18C0
:100680000C9BD31880229205944663441800FFF710
:1006900061FD53E007230C93099BFA2292005A4311
:1006A0000A9B64214B43D1180B9A13009B009B18A3
:1006B0005B00CA180C9BD3188022920594466344B1
:1006C0001800FFF747FD39E05808000058080020DF
:1006D000C010000008230C93099BFA2292005A4391
:1006E0000A9B64214B43D1180B9A13009B009B1863
:1006F0005B00CA180C9BD318802292059446634471
:100700001800FFF727FD19E009230C93099BFA2233
:1007100092005A430A9B64214B43D1180B9A130051
:100720009B009B185B00CA180C9BD3188022920573
:10073000944663441800FFF70DFDC046C0E3109BCC
:10074000092B00D9BFE3109B9A00F14BD3181B680B
:100750009F4600230B93099BFA2292005A430A9B5F
:1007600064214B43D1180B9A13009B009B185B002C
:10077000CA180C9BD3188022920594466344180033
:10078000FFF7E8FCE9E001230B93099BFA229200B2
:100790005A430A9B64214B43D1180B9A13009B00C8
:1007A0009B185B00CA180C9BD318802292059446B4
:1007B00063441800FFF7CEFCCFE002230B93099BA4
:1007C000FA2292005A430A9B64214B43D1180B9A98
:1007D00013009B009B185B00CA180C9BD318802247
:1007E0009205944663441800FFF7B4FCB5E0032378
:1007F0000B93099BFA2292005A430A9B64214B43B4
:10080000D1180B9A13009B009B185B00CA180C9B15
:10081000D31880229205944663441800FFF79AFC8F
:100820009BE004230B93099BFA2292005A430A9BF4
:1008300064214B43D1180B9A13009B009B185B005B
:10084000CA180C9BD3188022920594466344180062
:10085000FFF780FC81E005230B93099BFA229200AD
:100860005A430A9B64214B43D1180B9A13009B00F7
:100870009B185B00CA180C9BD318802292059446E3
:1008800063441800FFF766FC67E006230B93099B9F
:10089000FA2292005A430A9B64214B43D1180B9AC7
:1008A00013009B009B185B00CA180C9BD318802276
:1008B0009205944663441800FFF74CFC4DE0072373
:1008C0000B93099BFA2292005A430A9B64214B43E3
:1008D000D1180B9A13009B009B185B00CA180C9B45
:1008E000D31880229205944663441800FFF732FC27
:1008F00033E008230B93099BFA2292005A430A9B88
:1009000064214B43D1180B9A13009B009B185B008A
:10091000CA180C9BD3188022920594466344180091
:10092000FFF718FC19E009230B93099BFA229200A8
:100930005A430A9B64214B43D1180B9A13009B0026
:100940009B185B00CA180C9BD31880229205944612
:1009500063441800FFF7FEFBC046B4E2109B092B6E
:1009600000D9B3E2109B9A006A4BD3181B689F46CC
:1009700000230A93099BFA2292005A430A9B64219E
:100980004B43D1180B9A13009B009B185B00CA18AD
:100990000C9BD31880229205944663441800FFF7FD
:1009A000D9FBEDE001230A93099BFA2292005A43F6
:1009B0000A9B64214B43D1180B9A13009B009B1890
:1009C0005B00CA180C9BD31880229205944663449E
:1009D0001800FFF7BFFBD3E002230A93099BFA221A
:1009E00092005A430A9B64214B43D1180B9A13007F
:1009F0009B009B185B00CA180C9BD31880229205A1
:100A0000944663441800FFF7A5FBB9E003230A935B
:100A1000099BFA2292005A430A9B64214B43D11846
:100A20000B9A13009B009B185B00CA180C9BD318F1
:100A300080229205944663441800FFF78BFB9FE0E9
:100A400004230A93099BFA2292005A430A9B6421C9
:100A50004B43D1180B9A13009B009B185B00CA18DC
:100A60000C9BD31880229205944663441800FFF72C
:100A700071FB85E005230A93099BFA2292005A43F1
:100A80000A9B64214B43D1180B9A13009B009B18BF
:100A90005B00CA180C9BD3188022920594466344CD
:100AA0001800FFF757FB6BE006230A93099BFA2215
:100AB00092005A430A9B64214B43D1180B9A1300AE
:100AC0009B009B185B00CA180C9BD31880229205D0
:100AD000944663441800FFF73DFB51E007230A9357
:100AE000099BFA2292005A430A9B64214B43D11876
:100AF0000B9A13009B009B185B00CA180C9BD31821
:100B000080229205944663441800FFF723FB37E0E8
:100B1000E81000001011000008230A93099BFA2234
:100B200092005A430A9B64214B43D1180B9A13003D
:100B30009B009B185B00CA180C9BD318802292055F
:100B4000944663441800FFF705FB19E009230A9354
:100B5000099BFA2292005A430A9B64214B43D11805
:100B60000B9A13009B009B185B00CA180C9BD318B0
:100B700080229205944663441800FFF7EBFAC046C2
:100B8000A4E1109B092B00D9A3E1109B9A00D24B42
:100B9000D3181B689F4600230993099BFA229200F1
:100BA0005A430A9B64214B43D1180B9A13009B00B4
:100BB0009B185B00CA180C9BD318802292059446A0
:100BC00063441800FFF7C6FAE9E001230993099B83
:100BD000FA2292005A430A9B64214B43D1180B9A84
:100BE00013009B009B185B00CA180C9BD318802233
:100BF0009205944663441800FFF7ACFACFE0022355
:100C00000993099BFA2292005A430A9B64214B43A1
:100C1000D1180B9A13009B009B185B00CA180C9B01
:100C2000D31880229205944663441800FFF792FA85
:100C3000B5E003230993099BFA2292005A430A9BC9
:100C400064214B43D1180B9A13009B009B185B0047
:100C5000CA180C9BD318802292059446634418004E
:100C6000FFF778FA9BE004230993099BFA2292008C
:100C70005A430A9B64214B43D1180B9A13009B00E3
:100C80009B185B00CA180C9BD318802292059446CF
:100C900063441800FFF75EFA81E005230993099B7E
:100CA000FA2292005A430A9B64214B43D1180B9AB3
:100CB00013009B009B185B00CA180C9BD318802262
:100CC0009205944663441800FFF744FA67E0062350
:100CD0000993099BFA2292005A430A9B64214B43D1
:100CE000D1180B9A13009B009B185B00CA180C9B31
:100CF000D31880229205944663441800FFF72AFA1D
:100D00004DE007230993099BFA2292005A430A9B5C
:100D100064214B43D1180B9A13009B009B185B0076
:100D2000CA180C9BD318802292059446634418007D
:100D3000FFF710FA33E008230993099BFA22920087
:100D40005A430A9B64214B43D1180B9A13009B0012
:100D50009B185B00CA180C9BD318802292059446FE
:100D600063441800FFF7F6F919E009230993099B7A
:100D7000FA2292005A430A9B64214B43D1180B9AE2
:100D800013009B009B185B00CA180C9BD318802291
:100D90009205944663441800FFF7DCF9C046C0464C
:100DA00097E0079A4023FF339A4204DD089B002B0B
:100DB00001D101230F93079B002B12D10F9B012B15
:100DC0000FD1089B002B0CD1159B042B05DC159B28
:100DD0000133159300230F9303E0002315930023A1
:100DE0000F93159B052B01D9FFF7C8FA159B9A00A5
:100DF0003A4BD3181B689F460220FFF7C3F9030044
:100E00000693139A069B11001800FFF7DFF9030001
:100E10001800FFF79FF95DE00320FFF7B3F9030027
:100E20000593059B1800FFF7EFF903001800FFF783
:100E300091F94FE00420FFF7A5F903000493049B08
:100E40001800FFF70DFA03001800FFF783F941E0DF
:100E5000029B1800FFF77EF93CE0129BC0221206AD
:100E6000944663441800FFF775F933E00220FFF75A
:100E700089F9030006930320FFF784F90300059323
:100E8000069B139A5A4313009B009B185B0014495E
:100E9000180000F029F803001C00059B11491800F8
:100EA00000F022F803001900200000F01DF80300F4
:100EB000E0221206944663441800FFF74BF909E05C
:100EC000C046FFF75BFAC046FFF758FAC046FFF787
:100ED00055FAC046FFF752FA3811000060110000C1
:100EE00040420F000020BF0203460B437FD4002284
:100EF00043088B4274D303098B425FD3030A8B42AE
:100F000044D3030B8B4228D3030C8B420DD3FF2217
:100F1000090212BA030C8B4202D31212090265D0E5
:100F2000030B8B4219D300E0090AC30B8B4201D398
:100F3000CB03C01A5241830B8B4201D38B03C01ADF
:100F40005241430B8B4201D34B03C01A5241030B56
:100F50008B4201D30B03C01A5241C30A8B4201D307
:100F6000CB02C01A5241830A8B4201D38B02C01AB2
:100F70005241430A8B4201D34B02C01A5241030A29
:100F80008B4201D30B02C01A5241CDD2C3098B420E
:100F900001D3CB01C01A524183098B4201D38B018B
:100FA000C01A524143098B4201D34B01C01A52412E
:100FB00003098B4201D30B01C01A5241C3088B4273
:100FC00001D3CB00C01A524183088B4201D38B005E
:100FD000C01A524143088B4201D34B00C01A524100
:100FE000411A00D201465241104670475DE0CA0FD7
:100FF00000D04942031000D34042534000229C4697
:1010000003098B422DD3030A8B4212D3FC228901A0
:1010100012BA030A8B420CD3890192118B4208D376
:10102000890192118B4204D389013AD0921100E0D8
:101030008909C3098B4201D3CB01C01A52418309EC
:101040008B4201D38B01C01A524143098B4201D319
:101050004B01C01A524103098B4201D30B01C01A44
:101060005241C3088B4201D3CB00C01A52418308BE
:101070008B4201D38B00C01A5241D9D243088B4214
:1010800001D34B00C01A5241411A00D201466346B7
:1010900052415B10104601D34042002B00D549421B
:1010A000704763465B1000D3404201B5002000F05A
:1010B00005F802BD0029F8D016E770477047C04612
:1010C000280500005C05000090050000C405000034
:1010D000F80500002C0600006006000094060000E1
:1010E000D406000008070000520700008607000031
:1010F000BA070000EE0700002208000056080000B2
:101100008A080000BE080000F2080000260900005E
:1011100070090000A4090000D80900000C0A0000B2
:10112000400A0000740A0000A80A0000DC0A00005F
:10113000180B00004C0B0000960B0000CA0B0000BF
:10114000FE0B0000320C0000660C00009A0C000040
:10115000CE0C0000020D0000360D00006A0D0000EC
:10116000F80D0000180E0000340E0000500E0000B4
:081170005A0E00006C0E000095
:081178000000004000000050DF
:00000001FF
